{
  "_format": "hh-sol-artifact-1",
  "contractName": "BadgeSBT",
  "sourceName": "contracts/BadgeSBT.sol",
  "abi": [
    {
      "inputs": [
        {
          "internalType": "address",
          "name": "initialOwner",
          "type": "address"
        }
      ],
      "stateMutability": "nonpayable",
      "type": "constructor"
    },
    {
      "inputs": [
        {
          "internalType": "address",
          "name": "sender",
          "type": "address"
        },
        {
          "internalType": "uint256",
          "name": "tokenId",
          "type": "uint256"
        },
        {
          "internalType": "address",
          "name": "owner",
          "type": "address"
        }
      ],
      "name": "ERC721IncorrectOwner",
      "type": "error"
    },
    {
      "inputs": [
        {
          "internalType": "address",
          "name": "operator",
          "type": "address"
        },
        {
          "internalType": "uint256",
          "name": "tokenId",
          "type": "uint256"
        }
      ],
      "name": "ERC721InsufficientApproval",
      "type": "error"
    },
    {
      "inputs": [
        {
          "internalType": "address",
          "name": "approver",
          "type": "address"
        }
      ],
      "name": "ERC721InvalidApprover",
      "type": "error"
    },
    {
      "inputs": [
        {
          "internalType": "address",
          "name": "operator",
          "type": "address"
        }
      ],
      "name": "ERC721InvalidOperator",
      "type": "error"
    },
    {
      "inputs": [
        {
          "internalType": "address",
          "name": "owner",
          "type": "address"
        }
      ],
      "name": "ERC721InvalidOwner",
      "type": "error"
    },
    {
      "inputs": [
        {
          "internalType": "address",
          "name": "receiver",
          "type": "address"
        }
      ],
      "name": "ERC721InvalidReceiver",
      "type": "error"
    },
    {
      "inputs": [
        {
          "internalType": "address",
          "name": "sender",
          "type": "address"
        }
      ],
      "name": "ERC721InvalidSender",
      "type": "error"
    },
    {
      "inputs": [
        {
          "internalType": "uint256",
          "name": "tokenId",
          "type": "uint256"
        }
      ],
      "name": "ERC721NonexistentToken",
      "type": "error"
    },
    {
      "inputs": [
        {
          "internalType": "address",
          "name": "owner",
          "type": "address"
        }
      ],
      "name": "OwnableInvalidOwner",
      "type": "error"
    },
    {
      "inputs": [
        {
          "internalType": "address",
          "name": "account",
          "type": "address"
        }
      ],
      "name": "OwnableUnauthorizedAccount",
      "type": "error"
    },
    {
      "anonymous": false,
      "inputs": [
        {
          "indexed": true,
          "internalType": "address",
          "name": "owner",
          "type": "address"
        },
        {
          "indexed": true,
          "internalType": "address",
          "name": "approved",
          "type": "address"
        },
        {
          "indexed": true,
          "internalType": "uint256",
          "name": "tokenId",
          "type": "uint256"
        }
      ],
      "name": "Approval",
      "type": "event"
    },
    {
      "anonymous": false,
      "inputs": [
        {
          "indexed": true,
          "internalType": "address",
          "name": "owner",
          "type": "address"
        },
        {
          "indexed": true,
          "internalType": "address",
          "name": "operator",
          "type": "address"
        },
        {
          "indexed": false,
          "internalType": "bool",
          "name": "approved",
          "type": "bool"
        }
      ],
      "name": "ApprovalForAll",
      "type": "event"
    },
    {
      "anonymous": false,
      "inputs": [
        {
          "indexed": false,
          "internalType": "uint256",
          "name": "_fromTokenId",
          "type": "uint256"
        },
        {
          "indexed": false,
          "internalType": "uint256",
          "name": "_toTokenId",
          "type": "uint256"
        }
      ],
      "name": "BatchMetadataUpdate",
      "type": "event"
    },
    {
      "anonymous": false,
      "inputs": [
        {
          "indexed": false,
          "internalType": "uint256",
          "name": "_tokenId",
          "type": "uint256"
        }
      ],
      "name": "MetadataUpdate",
      "type": "event"
    },
    {
      "anonymous": false,
      "inputs": [
        {
          "indexed": true,
          "internalType": "address",
          "name": "previousOwner",
          "type": "address"
        },
        {
          "indexed": true,
          "internalType": "address",
          "name": "newOwner",
          "type": "address"
        }
      ],
      "name": "OwnershipTransferred",
      "type": "event"
    },
    {
      "anonymous": false,
      "inputs": [
        {
          "indexed": true,
          "internalType": "address",
          "name": "from",
          "type": "address"
        },
        {
          "indexed": true,
          "internalType": "address",
          "name": "to",
          "type": "address"
        },
        {
          "indexed": true,
          "internalType": "uint256",
          "name": "tokenId",
          "type": "uint256"
        }
      ],
      "name": "Transfer",
      "type": "event"
    },
    {
      "inputs": [
        {
          "internalType": "address",
          "name": "to",
          "type": "address"
        },
        {
          "internalType": "uint256",
          "name": "tokenId",
          "type": "uint256"
        }
      ],
      "name": "approve",
      "outputs": [],
      "stateMutability": "nonpayable",
      "type": "function"
    },
    {
      "inputs": [
        {
          "internalType": "address",
          "name": "owner",
          "type": "address"
        }
      ],
      "name": "balanceOf",
      "outputs": [
        {
          "internalType": "uint256",
          "name": "",
          "type": "uint256"
        }
      ],
      "stateMutability": "view",
      "type": "function"
    },
    {
      "inputs": [
        {
          "internalType": "uint256",
          "name": "tokenId",
          "type": "uint256"
        }
      ],
      "name": "getApproved",
      "outputs": [
        {
          "internalType": "address",
          "name": "",
          "type": "address"
        }
      ],
      "stateMutability": "view",
      "type": "function"
    },
    {
      "inputs": [
        {
          "internalType": "string",
          "name": "badgeType",
          "type": "string"
        },
        {
          "internalType": "uint256",
          "name": "appId",
          "type": "uint256"
        },
        {
          "internalType": "address",
          "name": "wallet",
          "type": "address"
        }
      ],
      "name": "hasBadge",
      "outputs": [
        {
          "internalType": "bool",
          "name": "",
          "type": "bool"
        }
      ],
      "stateMutability": "view",
      "type": "function"
    },
    {
      "inputs": [
        {
          "internalType": "address",
          "name": "owner",
          "type": "address"
        },
        {
          "internalType": "address",
          "name": "operator",
          "type": "address"
        }
      ],
      "name": "isApprovedForAll",
      "outputs": [
        {
          "internalType": "bool",
          "name": "",
          "type": "bool"
        }
      ],
      "stateMutability": "view",
      "type": "function"
    },
    {
      "inputs": [
        {
          "internalType": "address",
          "name": "to",
          "type": "address"
        },
        {
          "internalType": "uint256",
          "name": "appId",
          "type": "uint256"
        },
        {
          "internalType": "string",
          "name": "uri",
          "type": "string"
        }
      ],
      "name": "mintAppDeveloperBadge",
      "outputs": [],
      "stateMutability": "nonpayable",
      "type": "function"
    },
    {
      "inputs": [
        {
          "internalType": "address",
          "name": "to",
          "type": "address"
        },
        {
          "internalType": "string",
          "name": "uri",
          "type": "string"
        }
      ],
      "name": "mintBadge",
      "outputs": [],
      "stateMutability": "nonpayable",
      "type": "function"
    },
    {
      "inputs": [
        {
          "internalType": "address",
          "name": "to",
          "type": "address"
        },
        {
          "internalType": "uint256",
          "name": "appId",
          "type": "uint256"
        },
        {
          "internalType": "string",
          "name": "uri",
          "type": "string"
        }
      ],
      "name": "mintCastYourAppBadge",
      "outputs": [],
      "stateMutability": "nonpayable",
      "type": "function"
    },
    {
      "inputs": [
        {
          "internalType": "string",
          "name": "",
          "type": "string"
        },
        {
          "internalType": "uint256",
          "name": "",
          "type": "uint256"
        },
        {
          "internalType": "address",
          "name": "",
          "type": "address"
        }
      ],
      "name": "mintedBadges",
      "outputs": [
        {
          "internalType": "bool",
          "name": "",
          "type": "bool"
        }
      ],
      "stateMutability": "view",
      "type": "function"
    },
    {
      "inputs": [],
      "name": "name",
      "outputs": [
        {
          "internalType": "string",
          "name": "",
          "type": "string"
        }
      ],
      "stateMutability": "view",
      "type": "function"
    },
    {
      "inputs": [],
      "name": "owner",
      "outputs": [
        {
          "internalType": "address",
          "name": "",
          "type": "address"
        }
      ],
      "stateMutability": "view",
      "type": "function"
    },
    {
      "inputs": [
        {
          "internalType": "uint256",
          "name": "tokenId",
          "type": "uint256"
        }
      ],
      "name": "ownerOf",
      "outputs": [
        {
          "internalType": "address",
          "name": "",
          "type": "address"
        }
      ],
      "stateMutability": "view",
      "type": "function"
    },
    {
      "inputs": [],
      "name": "renounceOwnership",
      "outputs": [],
      "stateMutability": "nonpayable",
      "type": "function"
    },
    {
      "inputs": [
        {
          "internalType": "address",
          "name": "from",
          "type": "address"
        },
        {
          "internalType": "address",
          "name": "to",
          "type": "address"
        },
        {
          "internalType": "uint256",
          "name": "tokenId",
          "type": "uint256"
        }
      ],
      "name": "safeTransferFrom",
      "outputs": [],
      "stateMutability": "nonpayable",
      "type": "function"
    },
    {
      "inputs": [
        {
          "internalType": "address",
          "name": "from",
          "type": "address"
        },
        {
          "internalType": "address",
          "name": "to",
          "type": "address"
        },
        {
          "internalType": "uint256",
          "name": "tokenId",
          "type": "uint256"
        },
        {
          "internalType": "bytes",
          "name": "data",
          "type": "bytes"
        }
      ],
      "name": "safeTransferFrom",
      "outputs": [],
      "stateMutability": "nonpayable",
      "type": "function"
    },
    {
      "inputs": [
        {
          "internalType": "address",
          "name": "operator",
          "type": "address"
        },
        {
          "internalType": "bool",
          "name": "approved",
          "type": "bool"
        }
      ],
      "name": "setApprovalForAll",
      "outputs": [],
      "stateMutability": "nonpayable",
      "type": "function"
    },
    {
      "inputs": [
        {
          "internalType": "bytes4",
          "name": "interfaceId",
          "type": "bytes4"
        }
      ],
      "name": "supportsInterface",
      "outputs": [
        {
          "internalType": "bool",
          "name": "",
          "type": "bool"
        }
      ],
      "stateMutability": "view",
      "type": "function"
    },
    {
      "inputs": [],
      "name": "symbol",
      "outputs": [
        {
          "internalType": "string",
          "name": "",
          "type": "string"
        }
      ],
      "stateMutability": "view",
      "type": "function"
    },
    {
      "inputs": [
        {
          "internalType": "uint256",
          "name": "tokenId",
          "type": "uint256"
        }
      ],
      "name": "tokenURI",
      "outputs": [
        {
          "internalType": "string",
          "name": "",
          "type": "string"
        }
      ],
      "stateMutability": "view",
      "type": "function"
    },
    {
      "inputs": [
        {
          "internalType": "address",
          "name": "from",
          "type": "address"
        },
        {
          "internalType": "address",
          "name": "to",
          "type": "address"
        },
        {
          "internalType": "uint256",
          "name": "tokenId",
          "type": "uint256"
        }
      ],
      "name": "transferFrom",
      "outputs": [],
      "stateMutability": "nonpayable",
      "type": "function"
    },
    {
      "inputs": [
        {
          "internalType": "address",
          "name": "newOwner",
          "type": "address"
        }
      ],
      "name": "transferOwnership",
      "outputs": [],
      "stateMutability": "nonpayable",
      "type": "function"
    }
  ],
  "bytecode": "0x60806040523480156200001157600080fd5b5060405162001b7f38038062001b7f833981016040819052620000349162000140565b806040518060400160405280601c81526020017f42617365204d696e6920417070204275696c6465722042616467657300000000815250604051806040016040528060058152602001642126a0a12160d91b81525081600090816200009a919062000217565b506001620000a9828262000217565b5050506001600160a01b038116620000db57604051631e4fbdf760e01b81526000600482015260240160405180910390fd5b620000e681620000ee565b5050620002e3565b600780546001600160a01b038381166001600160a01b0319831681179093556040519116919082907f8be0079c531659141344cd1fd0a4f28419497f9722a3daafe3b4186f6b6457e090600090a35050565b6000602082840312156200015357600080fd5b81516001600160a01b03811681146200016b57600080fd5b9392505050565b634e487b7160e01b600052604160045260246000fd5b600181811c908216806200019d57607f821691505b602082108103620001be57634e487b7160e01b600052602260045260246000fd5b50919050565b601f8211156200021257600081815260208120601f850160051c81016020861015620001ed5750805b601f850160051c820191505b818110156200020e57828155600101620001f9565b5050505b505050565b81516001600160401b0381111562000233576200023362000172565b6200024b8162000244845462000188565b84620001c4565b602080601f8311600181146200028357600084156200026a5750858301515b600019600386901b1c1916600185901b1785556200020e565b600085815260208120601f198616915b82811015620002b45788860151825594840194600190910190840162000293565b5085821015620002d35787850151600019600388901b60f8161c191681555b5050505050600190811b01905550565b61188c80620002f36000396000f3fe608060405234801561001057600080fd5b50600436106101375760003560e01c806370a08231116100b857806395d89b411161007c57806395d89b41146102bc578063a22cb465146102c4578063b88d4fde146102d7578063c87b56dd146102ea578063e985e9c5146102fd578063f2fde38b1461031057600080fd5b806370a082311461025c578063715018a61461027d578063788f3f24146102855780638549555e146102985780638da5cb5b146102ab57600080fd5b806324b4d0ef116100ff57806324b4d0ef146101cc57806342842e0e14610210578063622f9d52146102235780636352211e146102365780636b2bafc81461024957600080fd5b806301ffc9a71461013c57806306fdde0314610164578063081812fc14610179578063095ea7b3146101a457806323b872dd146101b9575b600080fd5b61014f61014a366004611281565b610323565b60405190151581526020015b60405180910390f35b61016c61034e565b60405161015b91906112ee565b61018c610187366004611301565b6103e0565b6040516001600160a01b03909116815260200161015b565b6101b76101b2366004611336565b610409565b005b6101b76101c7366004611360565b610418565b61014f6101da366004611448565b82516020818501810180516009825292820195820195909520919094528352600091825260408083209093528152205460ff1681565b6101b761021e366004611360565b6104a8565b6101b761023136600461149f565b6104c8565b61018c610244366004611301565b6105eb565b6101b76102573660046114f6565b6105f6565b61026f61026a366004611544565b610629565b60405190815260200161015b565b6101b7610671565b6101b761029336600461149f565b610685565b61014f6102a6366004611448565b61075b565b6007546001600160a01b031661018c565b61016c6107a8565b6101b76102d236600461155f565b6107b7565b6101b76102e536600461159b565b6107c2565b61016c6102f8366004611301565b6107da565b61014f61030b366004611617565b6107e5565b6101b761031e366004611544565b610813565b60006001600160e01b03198216632483248360e11b1480610348575061034882610851565b92915050565b60606000805461035d9061164a565b80601f01602080910402602001604051908101604052809291908181526020018280546103899061164a565b80156103d65780601f106103ab576101008083540402835291602001916103d6565b820191906000526020600020905b8154815290600101906020018083116103b957829003601f168201915b5050505050905090565b60006103eb826108a1565b506000828152600460205260409020546001600160a01b0316610348565b6104148282336108da565b5050565b6001600160a01b03821661044757604051633250574960e11b8152600060048201526024015b60405180910390fd5b60006104548383336108e7565b9050836001600160a01b0316816001600160a01b0316146104a2576040516364283d7b60e01b81526001600160a01b038086166004830152602482018490528216604482015260640161043e565b50505050565b6104c3838383604051806020016040528060008152506107c2565b505050565b6104d061098d565b604051683232bb32b637b832b960b91b81526009908101908152604080516020928190038301902060008581529083528181206001600160a01b038716825290925290205460ff161561055c5760405162461bcd60e51b815260206004820152601460248201527310985919d948185b1c9958591e481b5a5b9d195960621b604482015260640161043e565b60088054908190600061056e83611684565b919050555061057d84826109ba565b61058781836109d4565b600160096040516105a790683232bb32b637b832b960b91b815260090190565b9081526040805160209281900383019020600096875282528086206001600160a01b0397909716865295905293909220805460ff1916931515939093179092555050565b6000610348826108a1565b6105fe61098d565b60088054908190600061061083611684565b919050555061061f83826109ba565b6104c381836109d4565b60006001600160a01b038216610655576040516322718ad960e21b81526000600482015260240161043e565b506001600160a01b031660009081526003602052604090205490565b61067961098d565b6106836000610a24565b565b61068d61098d565b6040516318d85cdd60e21b8152600990600401908152604080516020928190038301902060008581529083528181206001600160a01b038716825290925290205460ff16156107155760405162461bcd60e51b815260206004820152601460248201527310985919d948185b1c9958591e481b5a5b9d195960621b604482015260640161043e565b60088054908190600061072783611684565b919050555061073684826109ba565b61074081836109d4565b600160096040516105a7906318d85cdd60e21b815260040190565b600060098460405161076d91906116ab565b908152604080516020928190038301902060008681529083528181206001600160a01b038616825290925290205460ff1690505b9392505050565b60606001805461035d9061164a565b610414338383610a76565b6107cd848484610418565b6104a23385858585610b15565b606061034882610c40565b6001600160a01b03918216600090815260056020908152604080832093909416825291909152205460ff1690565b61081b61098d565b6001600160a01b03811661084557604051631e4fbdf760e01b81526000600482015260240161043e565b61084e81610a24565b50565b60006001600160e01b031982166380ac58cd60e01b148061088257506001600160e01b03198216635b5e139f60e01b145b8061034857506301ffc9a760e01b6001600160e01b0319831614610348565b6000818152600260205260408120546001600160a01b03168061034857604051637e27328960e01b81526004810184905260240161043e565b6104c38383836001610d49565b6000828152600a602052604081205460ff1661092c57600061090a858585610e4f565b6000858152600a60205260409020805460ff1916600117905591506107a19050565b6001600160a01b0384161561097a5760405162461bcd60e51b815260206004820152601460248201527329a12a1d1021b0b73737ba103a3930b739b332b960611b604482015260640161043e565b610985848484610e4f565b949350505050565b6007546001600160a01b031633146106835760405163118cdaa760e01b815233600482015260240161043e565b610414828260405180602001604052806000815250610f48565b60008281526006602052604090206109ec828261170d565b506040518281527ff8e1a15aba9398e019f0b49df1a4fde98ee17ae345cb5f6b5e2c27f5033e8ce79060200160405180910390a15050565b600780546001600160a01b038381166001600160a01b0319831681179093556040519116919082907f8be0079c531659141344cd1fd0a4f28419497f9722a3daafe3b4186f6b6457e090600090a35050565b6001600160a01b038216610aa857604051630b61174360e31b81526001600160a01b038316600482015260240161043e565b6001600160a01b03838116600081815260056020908152604080832094871680845294825291829020805460ff191686151590811790915591519182527f17307eab39ab6107e8899845ad3d59bd9653f200f220920489ca2b5937696c31910160405180910390a3505050565b6001600160a01b0383163b15610c3957604051630a85bd0160e11b81526001600160a01b0384169063150b7a0290610b579088908890879087906004016117cd565b6020604051808303816000875af1925050508015610b92575060408051601f3d908101601f19168201909252610b8f9181019061180a565b60015b610bfb573d808015610bc0576040519150601f19603f3d011682016040523d82523d6000602084013e610bc5565b606091505b508051600003610bf357604051633250574960e11b81526001600160a01b038516600482015260240161043e565b805160208201fd5b6001600160e01b03198116630a85bd0160e11b14610c3757604051633250574960e11b81526001600160a01b038516600482015260240161043e565b505b5050505050565b6060610c4b826108a1565b5060008281526006602052604081208054610c659061164a565b80601f0160208091040260200160405190810160405280929190818152602001828054610c919061164a565b8015610cde5780601f10610cb357610100808354040283529160200191610cde565b820191906000526020600020905b815481529060010190602001808311610cc157829003601f168201915b505050505090506000610cfc60408051602081019091526000815290565b90508051600003610d0e575092915050565b815115610d40578082604051602001610d28929190611827565b60405160208183030381529060405292505050919050565b61098584610f60565b8080610d5d57506001600160a01b03821615155b15610e1f576000610d6d846108a1565b90506001600160a01b03831615801590610d995750826001600160a01b0316816001600160a01b031614155b8015610dac5750610daa81846107e5565b155b15610dd55760405163a9fbf51f60e01b81526001600160a01b038416600482015260240161043e565b8115610e1d5783856001600160a01b0316826001600160a01b03167f8c5be1e5ebec7d5bd14f71427d1e84f3dd0314c0f7b2291e5b200ac8c7c3b92560405160405180910390a45b505b5050600090815260046020526040902080546001600160a01b0319166001600160a01b0392909216919091179055565b6000828152600260205260408120546001600160a01b0390811690831615610e7c57610e7c818486610fd4565b6001600160a01b03811615610eba57610e99600085600080610d49565b6001600160a01b038116600090815260036020526040902080546000190190555b6001600160a01b03851615610ee9576001600160a01b0385166000908152600360205260409020805460010190555b60008481526002602052604080822080546001600160a01b0319166001600160a01b0389811691821790925591518793918516917fddf252ad1be2c89b69c2b068fc378daa952ba7f163c4a11628f55a4df523b3ef91a4949350505050565b610f528383611038565b6104c3336000858585610b15565b6060610f6b826108a1565b506000610f8360408051602081019091526000815290565b90506000815111610fa357604051806020016040528060008152506107a1565b80610fad8461109d565b604051602001610fbe929190611827565b6040516020818303038152906040529392505050565b610fdf838383611130565b6104c3576001600160a01b03831661100d57604051637e27328960e01b81526004810182905260240161043e565b60405163177e802f60e01b81526001600160a01b03831660048201526024810182905260440161043e565b6001600160a01b03821661106257604051633250574960e11b81526000600482015260240161043e565b6000611070838360006108e7565b90506001600160a01b038116156104c3576040516339e3563760e11b81526000600482015260240161043e565b606060006110aa83611193565b600101905060008167ffffffffffffffff8111156110ca576110ca61139c565b6040519080825280601f01601f1916602001820160405280156110f4576020820181803683370190505b5090508181016020015b600019016f181899199a1a9b1b9c1cb0b131b232b360811b600a86061a8153600a85049450846110fe57509392505050565b60006001600160a01b038316158015906109855750826001600160a01b0316846001600160a01b0316148061116a575061116a84846107e5565b806109855750506000908152600460205260409020546001600160a01b03908116911614919050565b60008072184f03e93ff9f4daa797ed6e38ed64bf6a1f0160401b83106111d25772184f03e93ff9f4daa797ed6e38ed64bf6a1f0160401b830492506040015b6d04ee2d6d415b85acef810000000083106111fe576d04ee2d6d415b85acef8100000000830492506020015b662386f26fc10000831061121c57662386f26fc10000830492506010015b6305f5e1008310611234576305f5e100830492506008015b612710831061124857612710830492506004015b6064831061125a576064830492506002015b600a83106103485760010192915050565b6001600160e01b03198116811461084e57600080fd5b60006020828403121561129357600080fd5b81356107a18161126b565b60005b838110156112b95781810151838201526020016112a1565b50506000910152565b600081518084526112da81602086016020860161129e565b601f01601f19169290920160200192915050565b6020815260006107a160208301846112c2565b60006020828403121561131357600080fd5b5035919050565b80356001600160a01b038116811461133157600080fd5b919050565b6000806040838503121561134957600080fd5b6113528361131a565b946020939093013593505050565b60008060006060848603121561137557600080fd5b61137e8461131a565b925061138c6020850161131a565b9150604084013590509250925092565b634e487b7160e01b600052604160045260246000fd5b600067ffffffffffffffff808411156113cd576113cd61139c565b604051601f8501601f19908116603f011681019082821181831017156113f5576113f561139c565b8160405280935085815286868601111561140e57600080fd5b858560208301376000602087830101525050509392505050565b600082601f83011261143957600080fd5b6107a1838335602085016113b2565b60008060006060848603121561145d57600080fd5b833567ffffffffffffffff81111561147457600080fd5b61148086828701611428565b935050602084013591506114966040850161131a565b90509250925092565b6000806000606084860312156114b457600080fd5b6114bd8461131a565b925060208401359150604084013567ffffffffffffffff8111156114e057600080fd5b6114ec86828701611428565b9150509250925092565b6000806040838503121561150957600080fd5b6115128361131a565b9150602083013567ffffffffffffffff81111561152e57600080fd5b61153a85828601611428565b9150509250929050565b60006020828403121561155657600080fd5b6107a18261131a565b6000806040838503121561157257600080fd5b61157b8361131a565b91506020830135801515811461159057600080fd5b809150509250929050565b600080600080608085870312156115b157600080fd5b6115ba8561131a565b93506115c86020860161131a565b925060408501359150606085013567ffffffffffffffff8111156115eb57600080fd5b8501601f810187136115fc57600080fd5b61160b878235602084016113b2565b91505092959194509250565b6000806040838503121561162a57600080fd5b6116338361131a565b91506116416020840161131a565b90509250929050565b600181811c9082168061165e57607f821691505b60208210810361167e57634e487b7160e01b600052602260045260246000fd5b50919050565b6000600182016116a457634e487b7160e01b600052601160045260246000fd5b5060010190565b600082516116bd81846020870161129e565b9190910192915050565b601f8211156104c357600081815260208120601f850160051c810160208610156116ee5750805b601f850160051c820191505b81811015610c37578281556001016116fa565b815167ffffffffffffffff8111156117275761172761139c565b61173b81611735845461164a565b846116c7565b602080601f83116001811461177057600084156117585750858301515b600019600386901b1c1916600185901b178555610c37565b600085815260208120601f198616915b8281101561179f57888601518255948401946001909101908401611780565b50858210156117bd5787850151600019600388901b60f8161c191681555b5050505050600190811b01905550565b6001600160a01b0385811682528416602082015260408101839052608060608201819052600090611800908301846112c2565b9695505050505050565b60006020828403121561181c57600080fd5b81516107a18161126b565b6000835161183981846020880161129e565b83519083019061184d81836020880161129e565b0194935050505056fea2646970667358221220f7d54059774a17d0051a48b9e588dd2000a476bcdc2a275a59871875c31de82564736f6c63430008140033",
  "linkReferences": {},
  "deployedLinkReferences": {}
}