{
  "_format": "hh-sol-artifact-1",
  "contractName": "MiniCastBadgeSBT",
  "sourceName": "contracts/MiniCastBadgeSBT.sol",
  "abi": [
    {
      "inputs": [
        {
          "internalType": "string",
          "name": "_badgeURI",
          "type": "string"
        }
      ],
      "stateMutability": "nonpayable",
      "type": "constructor"
    },
    {
      "inputs": [
        {
          "internalType": "address",
          "name": "sender",
          "type": "address"
        },
        {
          "internalType": "uint256",
          "name": "tokenId",
          "type": "uint256"
        },
        {
          "internalType": "address",
          "name": "owner",
          "type": "address"
        }
      ],
      "name": "ERC721IncorrectOwner",
      "type": "error"
    },
    {
      "inputs": [
        {
          "internalType": "address",
          "name": "operator",
          "type": "address"
        },
        {
          "internalType": "uint256",
          "name": "tokenId",
          "type": "uint256"
        }
      ],
      "name": "ERC721InsufficientApproval",
      "type": "error"
    },
    {
      "inputs": [
        {
          "internalType": "address",
          "name": "approver",
          "type": "address"
        }
      ],
      "name": "ERC721InvalidApprover",
      "type": "error"
    },
    {
      "inputs": [
        {
          "internalType": "address",
          "name": "operator",
          "type": "address"
        }
      ],
      "name": "ERC721InvalidOperator",
      "type": "error"
    },
    {
      "inputs": [
        {
          "internalType": "address",
          "name": "owner",
          "type": "address"
        }
      ],
      "name": "ERC721InvalidOwner",
      "type": "error"
    },
    {
      "inputs": [
        {
          "internalType": "address",
          "name": "receiver",
          "type": "address"
        }
      ],
      "name": "ERC721InvalidReceiver",
      "type": "error"
    },
    {
      "inputs": [
        {
          "internalType": "address",
          "name": "sender",
          "type": "address"
        }
      ],
      "name": "ERC721InvalidSender",
      "type": "error"
    },
    {
      "inputs": [
        {
          "internalType": "uint256",
          "name": "tokenId",
          "type": "uint256"
        }
      ],
      "name": "ERC721NonexistentToken",
      "type": "error"
    },
    {
      "inputs": [
        {
          "internalType": "address",
          "name": "owner",
          "type": "address"
        }
      ],
      "name": "OwnableInvalidOwner",
      "type": "error"
    },
    {
      "inputs": [
        {
          "internalType": "address",
          "name": "account",
          "type": "address"
        }
      ],
      "name": "OwnableUnauthorizedAccount",
      "type": "error"
    },
    {
      "anonymous": false,
      "inputs": [
        {
          "indexed": true,
          "internalType": "address",
          "name": "owner",
          "type": "address"
        },
        {
          "indexed": true,
          "internalType": "address",
          "name": "approved",
          "type": "address"
        },
        {
          "indexed": true,
          "internalType": "uint256",
          "name": "tokenId",
          "type": "uint256"
        }
      ],
      "name": "Approval",
      "type": "event"
    },
    {
      "anonymous": false,
      "inputs": [
        {
          "indexed": true,
          "internalType": "address",
          "name": "owner",
          "type": "address"
        },
        {
          "indexed": true,
          "internalType": "address",
          "name": "operator",
          "type": "address"
        },
        {
          "indexed": false,
          "internalType": "bool",
          "name": "approved",
          "type": "bool"
        }
      ],
      "name": "ApprovalForAll",
      "type": "event"
    },
    {
      "anonymous": false,
      "inputs": [
        {
          "indexed": true,
          "internalType": "address",
          "name": "to",
          "type": "address"
        },
        {
          "indexed": true,
          "internalType": "uint256",
          "name": "tokenId",
          "type": "uint256"
        },
        {
          "indexed": true,
          "internalType": "uint256",
          "name": "appId",
          "type": "uint256"
        }
      ],
      "name": "BadgeMinted",
      "type": "event"
    },
    {
      "anonymous": false,
      "inputs": [
        {
          "indexed": true,
          "internalType": "address",
          "name": "wallet",
          "type": "address"
        },
        {
          "indexed": true,
          "internalType": "uint256",
          "name": "appId",
          "type": "uint256"
        }
      ],
      "name": "ClaimReset",
      "type": "event"
    },
    {
      "anonymous": false,
      "inputs": [
        {
          "indexed": true,
          "internalType": "address",
          "name": "previousOwner",
          "type": "address"
        },
        {
          "indexed": true,
          "internalType": "address",
          "name": "newOwner",
          "type": "address"
        }
      ],
      "name": "OwnershipTransferred",
      "type": "event"
    },
    {
      "anonymous": false,
      "inputs": [
        {
          "indexed": true,
          "internalType": "address",
          "name": "from",
          "type": "address"
        },
        {
          "indexed": true,
          "internalType": "address",
          "name": "to",
          "type": "address"
        },
        {
          "indexed": true,
          "internalType": "uint256",
          "name": "tokenId",
          "type": "uint256"
        }
      ],
      "name": "Transfer",
      "type": "event"
    },
    {
      "inputs": [
        {
          "internalType": "address",
          "name": "",
          "type": "address"
        },
        {
          "internalType": "uint256",
          "name": "",
          "type": "uint256"
        }
      ],
      "name": "approve",
      "outputs": [],
      "stateMutability": "pure",
      "type": "function"
    },
    {
      "inputs": [
        {
          "internalType": "uint256",
          "name": "",
          "type": "uint256"
        }
      ],
      "name": "badgeApp",
      "outputs": [
        {
          "internalType": "uint256",
          "name": "",
          "type": "uint256"
        }
      ],
      "stateMutability": "view",
      "type": "function"
    },
    {
      "inputs": [
        {
          "internalType": "address",
          "name": "owner",
          "type": "address"
        }
      ],
      "name": "balanceOf",
      "outputs": [
        {
          "internalType": "uint256",
          "name": "",
          "type": "uint256"
        }
      ],
      "stateMutability": "view",
      "type": "function"
    },
    {
      "inputs": [],
      "name": "baseBadgeURI",
      "outputs": [
        {
          "internalType": "string",
          "name": "",
          "type": "string"
        }
      ],
      "stateMutability": "view",
      "type": "function"
    },
    {
      "inputs": [
        {
          "internalType": "address[]",
          "name": "wallets",
          "type": "address[]"
        },
        {
          "internalType": "uint256[]",
          "name": "appIds",
          "type": "uint256[]"
        }
      ],
      "name": "batchResetClaims",
      "outputs": [],
      "stateMutability": "nonpayable",
      "type": "function"
    },
    {
      "inputs": [
        {
          "internalType": "uint256",
          "name": "",
          "type": "uint256"
        }
      ],
      "name": "getApproved",
      "outputs": [
        {
          "internalType": "address",
          "name": "",
          "type": "address"
        }
      ],
      "stateMutability": "pure",
      "type": "function"
    },
    {
      "inputs": [
        {
          "internalType": "address",
          "name": "",
          "type": "address"
        },
        {
          "internalType": "uint256",
          "name": "",
          "type": "uint256"
        }
      ],
      "name": "hasClaimed",
      "outputs": [
        {
          "internalType": "bool",
          "name": "",
          "type": "bool"
        }
      ],
      "stateMutability": "view",
      "type": "function"
    },
    {
      "inputs": [
        {
          "internalType": "address",
          "name": "",
          "type": "address"
        },
        {
          "internalType": "address",
          "name": "",
          "type": "address"
        }
      ],
      "name": "isApprovedForAll",
      "outputs": [
        {
          "internalType": "bool",
          "name": "",
          "type": "bool"
        }
      ],
      "stateMutability": "pure",
      "type": "function"
    },
    {
      "inputs": [
        {
          "internalType": "address",
          "name": "to",
          "type": "address"
        },
        {
          "internalType": "uint256",
          "name": "appId",
          "type": "uint256"
        }
      ],
      "name": "mintBadge",
      "outputs": [
        {
          "internalType": "uint256",
          "name": "",
          "type": "uint256"
        }
      ],
      "stateMutability": "nonpayable",
      "type": "function"
    },
    {
      "inputs": [],
      "name": "name",
      "outputs": [
        {
          "internalType": "string",
          "name": "",
          "type": "string"
        }
      ],
      "stateMutability": "view",
      "type": "function"
    },
    {
      "inputs": [],
      "name": "owner",
      "outputs": [
        {
          "internalType": "address",
          "name": "",
          "type": "address"
        }
      ],
      "stateMutability": "view",
      "type": "function"
    },
    {
      "inputs": [
        {
          "internalType": "uint256",
          "name": "tokenId",
          "type": "uint256"
        }
      ],
      "name": "ownerOf",
      "outputs": [
        {
          "internalType": "address",
          "name": "",
          "type": "address"
        }
      ],
      "stateMutability": "view",
      "type": "function"
    },
    {
      "inputs": [
        {
          "internalType": "address",
          "name": "wallet",
          "type": "address"
        },
        {
          "internalType": "uint256",
          "name": "appId",
          "type": "uint256"
        }
      ],
      "name": "ownsTokenForApp",
      "outputs": [
        {
          "internalType": "bool",
          "name": "",
          "type": "bool"
        }
      ],
      "stateMutability": "view",
      "type": "function"
    },
    {
      "inputs": [],
      "name": "renounceOwnership",
      "outputs": [],
      "stateMutability": "nonpayable",
      "type": "function"
    },
    {
      "inputs": [
        {
          "internalType": "address",
          "name": "wallet",
          "type": "address"
        },
        {
          "internalType": "uint256",
          "name": "appId",
          "type": "uint256"
        }
      ],
      "name": "resetClaim",
      "outputs": [],
      "stateMutability": "nonpayable",
      "type": "function"
    },
    {
      "inputs": [
        {
          "internalType": "address",
          "name": "from",
          "type": "address"
        },
        {
          "internalType": "address",
          "name": "to",
          "type": "address"
        },
        {
          "internalType": "uint256",
          "name": "tokenId",
          "type": "uint256"
        }
      ],
      "name": "safeTransferFrom",
      "outputs": [],
      "stateMutability": "nonpayable",
      "type": "function"
    },
    {
      "inputs": [
        {
          "internalType": "address",
          "name": "from",
          "type": "address"
        },
        {
          "internalType": "address",
          "name": "to",
          "type": "address"
        },
        {
          "internalType": "uint256",
          "name": "tokenId",
          "type": "uint256"
        },
        {
          "internalType": "bytes",
          "name": "data",
          "type": "bytes"
        }
      ],
      "name": "safeTransferFrom",
      "outputs": [],
      "stateMutability": "nonpayable",
      "type": "function"
    },
    {
      "inputs": [
        {
          "internalType": "address",
          "name": "",
          "type": "address"
        },
        {
          "internalType": "bool",
          "name": "",
          "type": "bool"
        }
      ],
      "name": "setApprovalForAll",
      "outputs": [],
      "stateMutability": "pure",
      "type": "function"
    },
    {
      "inputs": [
        {
          "internalType": "string",
          "name": "newURI",
          "type": "string"
        }
      ],
      "name": "setBaseURI",
      "outputs": [],
      "stateMutability": "nonpayable",
      "type": "function"
    },
    {
      "inputs": [
        {
          "internalType": "bytes4",
          "name": "interfaceId",
          "type": "bytes4"
        }
      ],
      "name": "supportsInterface",
      "outputs": [
        {
          "internalType": "bool",
          "name": "",
          "type": "bool"
        }
      ],
      "stateMutability": "view",
      "type": "function"
    },
    {
      "inputs": [],
      "name": "symbol",
      "outputs": [
        {
          "internalType": "string",
          "name": "",
          "type": "string"
        }
      ],
      "stateMutability": "view",
      "type": "function"
    },
    {
      "inputs": [
        {
          "internalType": "uint256",
          "name": "tokenId",
          "type": "uint256"
        }
      ],
      "name": "tokenURI",
      "outputs": [
        {
          "internalType": "string",
          "name": "",
          "type": "string"
        }
      ],
      "stateMutability": "view",
      "type": "function"
    },
    {
      "inputs": [
        {
          "internalType": "address",
          "name": "",
          "type": "address"
        },
        {
          "internalType": "uint256",
          "name": "",
          "type": "uint256"
        }
      ],
      "name": "tokensOf",
      "outputs": [
        {
          "internalType": "uint256",
          "name": "",
          "type": "uint256"
        }
      ],
      "stateMutability": "view",
      "type": "function"
    },
    {
      "inputs": [],
      "name": "totalSupply",
      "outputs": [
        {
          "internalType": "uint256",
          "name": "",
          "type": "uint256"
        }
      ],
      "stateMutability": "view",
      "type": "function"
    },
    {
      "inputs": [
        {
          "internalType": "address",
          "name": "from",
          "type": "address"
        },
        {
          "internalType": "address",
          "name": "to",
          "type": "address"
        },
        {
          "internalType": "uint256",
          "name": "tokenId",
          "type": "uint256"
        }
      ],
      "name": "transferFrom",
      "outputs": [],
      "stateMutability": "nonpayable",
      "type": "function"
    },
    {
      "inputs": [
        {
          "internalType": "address",
          "name": "newOwner",
          "type": "address"
        }
      ],
      "name": "transferOwnership",
      "outputs": [],
      "stateMutability": "nonpayable",
      "type": "function"
    }
  ],
  "bytecode": "0x60806040523480156200001157600080fd5b5060405162001e5538038062001e55833981016040819052620000349162000163565b336040518060400160405280601481526020017f4d696e69436173742053746f72652042616467650000000000000000000000008152506040518060400160405280600381526020016226a1a160e91b8152508160009081620000989190620002c7565b506001620000a78282620002c7565b5050506001600160a01b038116620000d957604051631e4fbdf760e01b81526000600482015260240160405180910390fd5b620000e481620000fb565b50600b620000f38282620002c7565b505062000393565b600680546001600160a01b038381166001600160a01b0319831681179093556040519116919082907f8be0079c531659141344cd1fd0a4f28419497f9722a3daafe3b4186f6b6457e090600090a35050565b634e487b7160e01b600052604160045260246000fd5b600060208083850312156200017757600080fd5b82516001600160401b03808211156200018f57600080fd5b818501915085601f830112620001a457600080fd5b815181811115620001b957620001b96200014d565b604051601f8201601f19908116603f01168101908382118183101715620001e457620001e46200014d565b816040528281528886848701011115620001fd57600080fd5b600093505b8284101562000221578484018601518185018701529285019262000202565b600086848301015280965050505050505092915050565b600181811c908216806200024d57607f821691505b6020821081036200026e57634e487b7160e01b600052602260045260246000fd5b50919050565b601f821115620002c257600081815260208120601f850160051c810160208610156200029d5750805b601f850160051c820191505b81811015620002be57828155600101620002a9565b5050505b505050565b81516001600160401b03811115620002e357620002e36200014d565b620002fb81620002f4845462000238565b8462000274565b602080601f8311600181146200033357600084156200031a5750858301515b600019600386901b1c1916600185901b178555620002be565b600085815260208120601f198616915b82811015620003645788860151825594840194600190910190840162000343565b5085821015620003835787850151600019600388901b60f8161c191681555b5050505050600190811b01905550565b611ab280620003a36000396000f3fe608060405234801561001057600080fd5b506004361061018e5760003560e01c806370a08231116100de578063b293109611610097578063e42bff6611610071578063e42bff6614610371578063e985e9c514610384578063f22abab41461039a578063f2fde38b146103a257600080fd5b8063b29310961461031d578063b88d4fde1461034b578063c87b56dd1461035e57600080fd5b806370a08231146102c8578063715018a6146102db57806379dccb62146102e35780638da5cb5b146102f657806395d89b4114610307578063a22cb4651461030f57600080fd5b806338a3dbae1161014b578063431072f111610125578063431072f11461026f5780634c40b2af1461028f57806355f804b3146102a25780636352211e146102b557600080fd5b806338a3dbae14610236578063395f938e1461024957806342842e0e1461025c57600080fd5b806301ffc9a71461019357806306fdde03146101bb578063081812fc146101d0578063095ea7b3146101fc57806318160ddd1461021157806323b872dd14610223575b600080fd5b6101a66101a13660046114fa565b6103b5565b60405190151581526020015b60405180910390f35b6101c3610407565b6040516101b29190611564565b6101e46101de366004611577565b50600090565b6040516001600160a01b0390911681526020016101b2565b61020f61020a3660046115ac565b610499565b005b6007545b6040519081526020016101b2565b61020f6102313660046115d6565b6104da565b6102156102443660046115ac565b610565565b61020f61025736600461165e565b610596565b61020f61026a3660046115d6565b6107b6565b61021561027d366004611577565b600a6020526000908152604090205481565b61020f61029d3660046115ac565b6107d6565b61020f6102b0366004611756565b6109b1565b6101e46102c3366004611577565b6109c9565b6102156102d636600461179f565b6109d4565b61020f610a1c565b6101a66102f13660046115ac565b610a30565b6006546001600160a01b03166101e4565b6101c3610afb565b61020f61020a3660046117ba565b6101a661032b3660046115ac565b600960209081526000928352604080842090915290825290205460ff1681565b61020f6103593660046117f6565b610b0a565b6101c361036c366004611577565b610b22565b61021561037f3660046115ac565b610bc0565b6101a6610392366004611872565b600092915050565b6101c3610e5a565b61020f6103b036600461179f565b610ee8565b60006001600160e01b031982166380ac58cd60e01b14806103e657506001600160e01b03198216635b5e139f60e01b145b8061040157506301ffc9a760e01b6001600160e01b03198316145b92915050565b606060008054610416906118a5565b80601f0160208091040260200160405190810160405280929190818152602001828054610442906118a5565b801561048f5780601f106104645761010080835404028352916020019161048f565b820191906000526020600020905b81548152906001019060200180831161047257829003601f168201915b5050505050905090565b60405162461bcd60e51b81526020600482015260116024820152705342543a206e6f20617070726f76616c7360781b60448201526064015b60405180910390fd5b6001600160a01b03821661050457604051633250574960e11b8152600060048201526024016104d1565b6000610511838333610f26565b9050836001600160a01b0316816001600160a01b03161461055f576040516364283d7b60e01b81526001600160a01b03808616600483015260248201849052821660448201526064016104d1565b50505050565b6008602052816000526040600020818154811061058157600080fd5b90600052602060002001600091509150505481565b61059e610fb2565b8281146105e65760405162461bcd60e51b8152602060048201526016602482015275082e4e4c2f2e640d8cadccee8d040dad2e6dac2e8c6d60531b60448201526064016104d1565b60005b838110156107af576000858583818110610605576106056118df565b905060200201602081019061061a919061179f565b90506000848484818110610630576106306118df565b60200291909101359150506001600160a01b03821661065057505061079d565b6001600160a01b0382166000908152600860209081526040808320805482518185028101850190935280835284938301828280156106ad57602002820191906000526020600020905b815481526020019060010190808311610699575b5050505050905060005b815181101561070e5783600a60008484815181106106d7576106d76118df565b6020026020010151815260200190815260200160002054036106fc576001925061070e565b80610706816118f5565b9150506106b7565b508115801561074057506001600160a01b038416600090815260096020908152604080832086845290915290205460ff165b15610798576001600160a01b0384166000818152600960209081526040808320878452909152808220805460ff19169055518592917e180ff6e3d36bfd5eee25c91a9fe377af813646a650fd10d5d7a6868f612c2591a35b505050505b806107a7816118f5565b9150506105e9565b5050505050565b6107d183838360405180602001604052806000815250610b0a565b505050565b6107de610fb2565b6001600160a01b03821661082d5760405162461bcd60e51b8152602060048201526016602482015275496e76616c69642077616c6c6574206164647265737360501b60448201526064016104d1565b6001600160a01b03821660009081526008602090815260408083208054825181850281018501909352808352919290919083018282801561088d57602002820191906000526020600020905b815481526020019060010190808311610879575b5050505050905060005b815181101561092d5782600a60008484815181106108b7576108b76118df565b60200260200101518152602001908152602001600020540361091b5760405162461bcd60e51b815260206004820152601d60248201527f55736572206f776e7320746f6b656e2c2063616e6e6f7420726573657400000060448201526064016104d1565b80610925816118f5565b915050610897565b506001600160a01b038316600090815260096020908152604080832085845290915290205460ff16156107d1576001600160a01b0383166000818152600960209081526040808320868452909152808220805460ff19169055518492917e180ff6e3d36bfd5eee25c91a9fe377af813646a650fd10d5d7a6868f612c2591a3505050565b6109b9610fb2565b600b6109c58282611962565b5050565b600061040182610fdf565b60006001600160a01b038216610a00576040516322718ad960e21b8152600060048201526024016104d1565b506001600160a01b031660009081526003602052604090205490565b610a24610fb2565b610a2e6000611018565b565b6001600160a01b038216600090815260086020908152604080832080548251818502810185019093528083528493830182828015610a8d57602002820191906000526020600020905b815481526020019060010190808311610a79575b5050505050905060005b8151811015610af05783600a6000848481518110610ab757610ab76118df565b602002602001015181526020019081526020016000205403610ade57600192505050610401565b80610ae8816118f5565b915050610a97565b506000949350505050565b606060018054610416906118a5565b610b158484846104da565b61055f338585858561106a565b6060610b2d82610fdf565b50600b8054610b3b906118a5565b80601f0160208091040260200160405190810160405280929190818152602001828054610b67906118a5565b8015610bb45780601f10610b8957610100808354040283529160200191610bb4565b820191906000526020600020905b815481529060010190602001808311610b9757829003601f168201915b50505050509050919050565b6000610bca610fb2565b6001600160a01b038316610c205760405162461bcd60e51b815260206004820152601b60248201527f43616e6e6f74206d696e7420746f207a65726f2061646472657373000000000060448201526064016104d1565b6001600160a01b038316600090815260096020908152604080832085845290915290205460ff1615610c9f5760405162461bcd60e51b815260206004820152602260248201527f426164676520616c726561647920636c61696d656420666f7220746869732061604482015261070760f41b60648201526084016104d1565b6001600160a01b038316600090815260086020908152604080832080548251818502810185019093528083529192909190830182828015610cff57602002820191906000526020600020905b815481526020019060010190808311610ceb575b5050505050905060005b8151811015610dab5783600a6000848481518110610d2957610d296118df565b602002602001015181526020019081526020016000205403610d995760405162461bcd60e51b8152602060048201526024808201527f5573657220616c7265616479206f776e7320626164676520666f7220746869736044820152630206170760e41b60648201526084016104d1565b80610da3816118f5565b915050610d09565b506007805460009182610dbd836118f5565b919050559050610dcd8582611194565b6001600160a01b038516600081815260086020908152604080832080546001818101835591855283852001869055858452600a835281842089905584845260098352818420898552909252808320805460ff1916909217909155518692849290917f7e6f783c7d2fd31e9979cbb09639e191e20de085caf64b2875d53ff862aa3baa9190a4949350505050565b600b8054610e67906118a5565b80601f0160208091040260200160405190810160405280929190818152602001828054610e93906118a5565b8015610ee05780601f10610eb557610100808354040283529160200191610ee0565b820191906000526020600020905b815481529060010190602001808311610ec357829003601f168201915b505050505081565b610ef0610fb2565b6001600160a01b038116610f1a57604051631e4fbdf760e01b8152600060048201526024016104d1565b610f2381611018565b50565b6000828152600260205260408120546001600160a01b0316801580610f5257506001600160a01b038516155b610f9e5760405162461bcd60e51b815260206004820152601760248201527f5342543a207472616e73666572732064697361626c656400000000000000000060448201526064016104d1565b610fa98585856111ae565b95945050505050565b6006546001600160a01b03163314610a2e5760405163118cdaa760e01b81523360048201526024016104d1565b6000818152600260205260408120546001600160a01b03168061040157604051637e27328960e01b8152600481018490526024016104d1565b600680546001600160a01b038381166001600160a01b0319831681179093556040519116919082907f8be0079c531659141344cd1fd0a4f28419497f9722a3daafe3b4186f6b6457e090600090a35050565b6001600160a01b0383163b156107af57604051630a85bd0160e11b81526001600160a01b0384169063150b7a02906110ac908890889087908790600401611a22565b6020604051808303816000875af19250505080156110e7575060408051601f3d908101601f191682019092526110e491810190611a5f565b60015b611150573d808015611115576040519150601f19603f3d011682016040523d82523d6000602084013e61111a565b606091505b50805160000361114857604051633250574960e11b81526001600160a01b03851660048201526024016104d1565b805160208201fd5b6001600160e01b03198116630a85bd0160e11b1461118c57604051633250574960e11b81526001600160a01b03851660048201526024016104d1565b505050505050565b6109c58282604051806020016040528060008152506112a7565b6000828152600260205260408120546001600160a01b03908116908316156111db576111db8184866112bf565b6001600160a01b03811615611219576111f8600085600080611323565b6001600160a01b038116600090815260036020526040902080546000190190555b6001600160a01b03851615611248576001600160a01b0385166000908152600360205260409020805460010190555b60008481526002602052604080822080546001600160a01b0319166001600160a01b0389811691821790925591518793918516917fddf252ad1be2c89b69c2b068fc378daa952ba7f163c4a11628f55a4df523b3ef91a4949350505050565b6112b18383611420565b6107d133600085858561106a565b6112ca838383611485565b6107d1576001600160a01b0383166112f857604051637e27328960e01b8152600481018290526024016104d1565b60405163177e802f60e01b81526001600160a01b0383166004820152602481018290526044016104d1565b808061133757506001600160a01b03821615155b156113f057600061134784610fdf565b90506001600160a01b038316158015906113735750826001600160a01b0316816001600160a01b031614155b801561137d575060015b156113a65760405163a9fbf51f60e01b81526001600160a01b03841660048201526024016104d1565b81156113ee5783856001600160a01b0316826001600160a01b03167f8c5be1e5ebec7d5bd14f71427d1e84f3dd0314c0f7b2291e5b200ac8c7c3b92560405160405180910390a45b505b5050600090815260046020526040902080546001600160a01b0319166001600160a01b0392909216919091179055565b6001600160a01b03821661144a57604051633250574960e11b8152600060048201526024016104d1565b600061145883836000610f26565b90506001600160a01b038116156107d1576040516339e3563760e11b8152600060048201526024016104d1565b60006001600160a01b038316158015906114dc5750826001600160a01b0316846001600160a01b031614806114b8575060005b806114dc57506000828152600460205260409020546001600160a01b038481169116145b949350505050565b6001600160e01b031981168114610f2357600080fd5b60006020828403121561150c57600080fd5b8135611517816114e4565b9392505050565b6000815180845260005b8181101561154457602081850181015186830182015201611528565b506000602082860101526020601f19601f83011685010191505092915050565b602081526000611517602083018461151e565b60006020828403121561158957600080fd5b5035919050565b80356001600160a01b03811681146115a757600080fd5b919050565b600080604083850312156115bf57600080fd5b6115c883611590565b946020939093013593505050565b6000806000606084860312156115eb57600080fd5b6115f484611590565b925061160260208501611590565b9150604084013590509250925092565b60008083601f84011261162457600080fd5b50813567ffffffffffffffff81111561163c57600080fd5b6020830191508360208260051b850101111561165757600080fd5b9250929050565b6000806000806040858703121561167457600080fd5b843567ffffffffffffffff8082111561168c57600080fd5b61169888838901611612565b909650945060208701359150808211156116b157600080fd5b506116be87828801611612565b95989497509550505050565b634e487b7160e01b600052604160045260246000fd5b600067ffffffffffffffff808411156116fb576116fb6116ca565b604051601f8501601f19908116603f01168101908282118183101715611723576117236116ca565b8160405280935085815286868601111561173c57600080fd5b858560208301376000602087830101525050509392505050565b60006020828403121561176857600080fd5b813567ffffffffffffffff81111561177f57600080fd5b8201601f8101841361179057600080fd5b6114dc848235602084016116e0565b6000602082840312156117b157600080fd5b61151782611590565b600080604083850312156117cd57600080fd5b6117d683611590565b9150602083013580151581146117eb57600080fd5b809150509250929050565b6000806000806080858703121561180c57600080fd5b61181585611590565b935061182360208601611590565b925060408501359150606085013567ffffffffffffffff81111561184657600080fd5b8501601f8101871361185757600080fd5b611866878235602084016116e0565b91505092959194509250565b6000806040838503121561188557600080fd5b61188e83611590565b915061189c60208401611590565b90509250929050565b600181811c908216806118b957607f821691505b6020821081036118d957634e487b7160e01b600052602260045260246000fd5b50919050565b634e487b7160e01b600052603260045260246000fd5b60006001820161191557634e487b7160e01b600052601160045260246000fd5b5060010190565b601f8211156107d157600081815260208120601f850160051c810160208610156119435750805b601f850160051c820191505b8181101561118c5782815560010161194f565b815167ffffffffffffffff81111561197c5761197c6116ca565b6119908161198a84546118a5565b8461191c565b602080601f8311600181146119c557600084156119ad5750858301515b600019600386901b1c1916600185901b17855561118c565b600085815260208120601f198616915b828110156119f4578886015182559484019460019091019084016119d5565b5085821015611a125787850151600019600388901b60f8161c191681555b5050505050600190811b01905550565b6001600160a01b0385811682528416602082015260408101839052608060608201819052600090611a559083018461151e565b9695505050505050565b600060208284031215611a7157600080fd5b8151611517816114e456fea2646970667358221220597f4fcccdbaa04ae40e7abf341179a9208765e8b111ee5303c41c1c5300f60264736f6c63430008140033",
  "linkReferences": {},
  "deployedLinkReferences": {}
}